:100000003FC059C0ABC257C056C055C054C053C002
:1000100052C051C050C04FC04EC04DC04CC037330D
:1000200000230056302E38370052003F2E2F212C4F
:100030003A3B7E245E28292D405F7C3D232B2A25D8
:10004000263C3EFC7C3C1C0C0484C4E4F46088A880
:10005000904028D0082078B048E0A0F068D8501030
:10006000C030187098B8C8325694E8CEE2AA4A1345
:100070007AB4B6866A36528C16548B44AC14580047
:1000800011241FBECFE5D2E0DEBFCDBF10E0A0E659
:10009000B0E0ECE3FFE002C005900D92A436B1079A
:1000A000D9F720E0A4E6B0E001C01D92AA37B2075C
:1000B000E1F782D602C7A4CFCF93DF93CAE0D0E0A6
:1000C00085E43BD481E0F2D381110EC02197B3992E
:1000D00004C082E02AD3CAE0D0E0B49903C081E032
:1000E00024D3ECCF209761F7DF91CF910895CF9380
:1000F000C1E081E0DBD3811119C081E07AD381E0D6
:1001000059D382E076D383E055D365D3B39906C043
:1001100061E082E085D381E0C82FEBCF61E081E030
:10012000B49BF8CF81E08C0FCA30B1F7CF9108951E
:100130004091620050916300242F21703327319544
:10014000219531092227347B569547952427352759
:100150003093630020936200932F981718F4892F2F
:1001600090E00895981BF9CF0F931F93CF93DF93DF
:100170008C01C0E0D0E0C23039F48AE0D9DF805D84
:10018000F8018283C3E0D0E08AE1D2DFF801EC0F0E
:10019000FD1F8F5B80832196C530D10561F7DF910C
:1001A000CF911F910F910895CF92DF92EF92FF921E
:1001B0000F931F93CF93DF9300D000D00F92CDB752
:1001C000DEB76E0186E0C80ED11CCE010196CCDFF1
:1001D0008EE0F0D2FE0131967F01F70181917F011F
:1001E000ACD3F9D281E062D3182F811112C0EC1484
:1001F000FD0499F780EDE82E87E0F82E80E02BD4FF
:10020000082F8CD2F1E0EF1AF108011581F0EF28E8
:10021000A9F40F900F900F900F900F90DF91CF9156
:100220001F910F91FF90EF90DF90CF900895E11410
:10023000F10479F380E03AD3811501F381E036D3FC
:100240008111E7CFFE013196E10FF11D808180130E
:1002500006C01F5F153071F682E56FD3B6CF1BD392
:10026000B7CFCF93C82F8091600090916100883EF6
:100270009D4F49F440E050E061E081E02ED2909340
:10028000610080936000C13009F047C010926100A6
:100290001092600088EE93E0909365008093640074
:1002A0008EE44BD380916400909165000197909308
:1002B000650080936400892B89F44091600050911F
:1002C0006100403187E2580730F561E082E005D2F5
:1002D0008091600090916100CF918AC380E0BBD390
:1002E000C82F1CD280ED8C0F8A30E0F68091600020
:1002F000909161006AE070E071D5C0978C0F911DFC
:10030000909361008093600088EE93E09093650085
:1003100080936400C7CFCF91BEC2C23099F4809160
:10032000600090916100892B69F080E018D1809184
:10033000640090916500009739F0019790936500F3
:1003400080936400CF91089588EC90E090936500CD
:100350008093640080916000909161000197909378
:10036000610080936000892B69F740E050E061E014
:1003700081E0B3D1909361008093600064E082E0FB
:10038000CF917AC40F931F93CF9381E09CD18FE3D9
:10039000D4D208EE13E081E089D2811509F474C04B
:1003A00081E290E011D380E0CF911F910F918BC13A
:1003B00036D111D189E0FED189E290E005D3EBCFAF
:1003C00080E0DDD1F6CF84E0FCCF88E0FACF8CE08E
:1003D000F8CF80E8E4D1EDCF80E1FCCF80E2FACF26
:1003E00086DEE7CF80E4F6CF81E3A7D261E081E04B
:1003F00043D4DFCF82E3A1D262E0F9CF83E39DD281
:1004000063E0F5CF84E399D264E0F1CF81E029DFA6
:10041000D0CFC033B1F0EDEBEC0FE53168F5F0E093
:10042000E15AF84F099483E290E0CED2C2CF44DE85
:10043000C0CF80E048D16CD281E045D1BACFB4DEE4
:10044000B8CF82E0C7CF80E03ED161E082E014D433
:1004500081E039D108EB1BE09ECF80E034D162E02F
:10046000F5CF80E030D163E0F1CF80E02CD164E0C3
:10047000EDCF50D1BDD29DCFC13009F49ACFC11577
:1004800009F489CF08D287CF0115110509F488CF67
:1004900080E0E1D2C82F01501109811511F008EE5A
:1004A00013E03CD18FEF44DE82E075D18111B1CFF2
:1004B000EFECEC0FEA3208F0ACCFF0E0EC58F84F7C
:1004C0000994909178009071823061F0911120C070
:1004D0008091780085FF1BC08091790086FF16C04F
:1004E000C09A0895911551F09091760099BD909120
:1004F000760098BD9AB592619ABD83BF80917800CD
:1005000085FF05C08091790086FFEACFC0980895E5
:100510001ABC13BEDDCF80917900B39908C022E0E8
:1005200087FF21E090917800922B90937800B49906
:1005300009C08038880B81958F5F90917800892B56
:10054000809378000895809178008F7C9091790055
:100550009073892B8093780081E0B3CF1895811533
:1005600089F180916E0090916F00A0917000B09120
:100570007100883C9105A105B10561F00196A11DAE
:10058000B11D80936E0090936F00A0937000B093A4
:100590007100089510926E0010926F00109270001A
:1005A0001092710085B7877E806185BF85B78468AA
:1005B00085BF8B7F85BF85B7806285BF789488951E
:1005C000F894089510926E0010926F0010927000CF
:1005D0001092710008958091780082FF1FC065EA33
:1005E00089E991E059D4609176007091770086E9AD
:1005F00091E060D46091730085E991E04DD4609101
:10060000790088E991E048D46091720084E991E032
:1006100043D4809178008B7F8093780008958DE497
:1006200090E090937700809376008FE08093730042
:1006300080E190E0909375008093740010927200B6
:1006400084E38093790080917800846080937800BF
:10065000C2CFB89AB99AC39AC49AC29A89E991E06A
:1006600005D4853A71F586E991E008D49093770036
:100670008093760085E991E0F9D380937300682F29
:1006800070E080EF90E0CFD37093750060937400BA
:1006900084E991E0EBD38093720088E991E0E6D39E
:1006A0008093790050DF85B38C6185BB8BB7806206
:1006B0008BBF8EE48DBD80B7876880BF81E08EBD23
:1006C0000895ADDFEFCF811539F0809178008F7CF0
:1006D000806180937800089536CF962FBA018130DB
:1006E00051F4913019F482E991E0C8C3923051F489
:1006F00080E991E0FACF823029F4913031F482E937
:1007000091E0D8D380E090E008959230D9F780E965
:1007100091E0F7CF8091730090E0089508B606FE4F
:10072000FDCF88B7806488BF08952091760030910E
:1007300077008130C9F4215031093093770020933C
:10074000760080917600909177008832910588F448
:1007500088E290E090937700809376008091780013
:100760008460809378000895823059F72F5F3F4F5F
:10077000E4CF8C39910590F38BE990E0EBCF909129
:100780007900937F892B8093790080917800846031
:10079000809378000895909179008923089590912D
:1007A00079009827909379008091780084608093F5
:1007B00078000895CF93DF93C82FC11103C0DF9154
:1007C000CF910895D0917400D11102C0C150F5CFDE
:1007D000A5DFD150F9CFCF93DF93C0917200D0E065
:1007E000209719F4DF91CF91089581E0E3DF2197FD
:1007F000F7CFCF93C82F82E064DE10926E00109284
:100800006F001092700010927100C13031F083E0DF
:10081000C23021F081E0CF9154CE81E0CBDFFACF1E
:100820006130F9F48130A9F480917200811519F0DA
:10083000815080937200809178008460809378006A
:1008400081E0D7DF81E0B6DF82E0D3DF83E0B2DF93
:10085000C2CF823081F7809172008F3F61F38F5F4A
:10086000E8CF90917300813081F4923318F49F5F48
:10087000909373006091730070E080EF90E0D3D2AA
:100880007093750060937400D6CF823099F79630DC
:1008900088F39150EDCFCF93C8E081E0AADF81E0EB
:1008A00089DFCA95D1F783E0CF9184CFCF93DF93CF
:1008B000D82FC0917800B29912C0C86081E003DFE0
:1008C00083ED90E30197F1F700C00000B29B13C0E5
:1008D00083ED90E30197F1F700C000007CDE8C2FE0
:1008E000D13009F4877F80937800C3FB882780F993
:1008F000DF91CF910895B39904C060E082E090DF6A
:10090000C77FB499E3CF60E081E08ADFC77FDECFA5
:10091000CF93DF9382E0D5DDC0EADFE0B39B09C06F
:10092000B49B07C081E0C2DF811103C0F7DE2197CD
:10093000A9F781E0DF91CF91C4CDCF9390ED980FCF
:10094000282F2053330B9A3038F09FE9980F9A31B3
:10095000F8F4282F2755330BF901ED5BFF4FE49195
:10096000CE2F2BE230E047E650E0F9019491891355
:1009700002C0FA01C4912F5F3F4F4F5F5F4FF0E01D
:1009800023343F0791F78032B9F484E0CF9112CF3E
:100990009FEB980FC0E89A3120F7282F2753330B8D
:1009A000DBCF80E083DF81110DC082E0C7FF81E0F3
:1009B00020DF81E0FFDECC0FC03899F782E0FADE5D
:1009C000CF9109CFCF9108951F93CF93DF93EC017F
:1009D000FE011491111529F081E068DF219681153F
:1009E00021F0DF91CF911F910895812FA6DFF0CFE5
:1009F0001F93CF93DF9300D000D00F92CDB7DEB717
:100A00009C0110E0EAE0F0E02115310581F41115B8
:100A100021F081E04BDF8115B1F080E20F900F9063
:100A20000F900F900F90DF91CF911F9186CFC9014A
:100A3000BF01E5D1DE011196A10FB11D805D8C9340
:100A40009B011F5FE1CF1150FE013196E10FF11DB7
:100A5000808173DFDCCFCF9320916C0030916D00EB
:100A60002115310531F02150310930936D0020936B
:100A70006C00811102C010926B00C0916A00C130FD
:100A800009F4C6C0C23009F4E4C0C11521F0C0E0C9
:100A90008C2FCF9108953FDD81E061DD8091790059
:100AA0008C70883009F452C008F044C090916900FD
:100AB0009095809178008923809378001092690046
:100AC00020916C0030916D002115310509F069C04D
:100AD00090916700911509F45CC080916600880FC1
:100AE000816047E050E0491B510901C0880F4A95D9
:100AF000EAF7F901ED5BFF4FE4918E1343C0C0E3C9
:100B00002A3018F02432C0F5C7E3C20F10926700F4
:100B1000109266008091740090917500880F991F63
:100B2000880F991F90936D0080936C0081E08093F3
:100B30006B00AECF8C3009F0C3CF80917800982F36
:100B40009370933009F0BCCF8E7F0CC090917800E9
:100B5000892F8370833069F480916800811529F0B2
:100B60008095892380937800ABCF9E7F9093780007
:100B7000A7CF80936800A4CFF901E95FFF4FE4910C
:100B8000CE2FC4CF2F5F3F4F2C33310509F0B1CFAB
:100B9000BDCF80916B00811521F010926B00C0E2F7
:100BA00077CFC09178008C2F8370811509F46FCFB7
:100BB00010926B00809167008F5F80936700209197
:100BC0006600220F2093660080917400909175005A
:100BD000C0FF10C090936D0080936C0081E0809303
:100BE000690082E06EDCCC7FC093780081E0809366
:100BF0006A004DCF63E070E0F1D090936D00809378
:100C00006C0082E080936900216020936600E9CF48
:100C100010926E0010926F0010927000109271008E
:100C2000809179008C70843009F475DC80916C00BF
:100C300090916D00892B09F02ACF81E042DC8091F0
:100C400074009091750090936D0080936C0082E029
:100C5000CECF61DC80916C0090916D00892B09F002
:100C600016CF10926A008091740090917500909355
:100C70006D0080936C000BCFCF92DF92EF92FF92CA
:100C80000F931F93CF93DF93CDB7DEB7C456D1092F
:100C90000FB6F894DEBF0FBECDBF162F813009F01E
:100CA0005CC027EEC22E23E0D22E00E081E0FEDD04
:100CB000811132C081E0CFDE7601811579F091E0BB
:100CC000900FFE013196E00FF11D80830336A1F5F0
:100CD000E2DD00E088EEE82E93E0F92E1FDD6701EB
:100CE00081E0C81AD108EF2809F70115A1F10150D8
:100CF000FE013196E00FF11D108244E650E06CE2F7
:100D000071E0113031F01230C9F444E650E068EC83
:100D100070E0CE010196B7D0CC59DF4F0FB6F894F2
:100D2000DEBF0FBECDBFDF91CF911F910F91FF901E
:100D3000EF90DF90CF900895092FCCCF44E650E09C
:100D400064E670E0133029F344E650E060E070E0C0
:100D50001430F9F2E1CF9FDDDFCF8230E9F644E6CF
:100D600050E06CE271E0113061F044E650E068EC74
:100D700070E0123031F01330C1F444E650E064E624
:100D800070E0CE01019662D010E0FE013196E10FD5
:100D9000F11D0081011509F4BFCF80E087DD8111CD
:100DA000BBCF802FCADD1F5FF0CF44E650E060E08C
:100DB00070E0143031F3E8CF4CDC81E084DC8EE16C
:100DC00090E002DE80E07FDC81E070DD8111DADA24
:100DD000A5DC82E046DA80E03EDEF6CF002455272F
:100DE00004C0080E591F880F991F009729F07695A7
:100DF0006795B8F37105B9F7802D952F0895AA1B53
:100E0000BB1B51E107C0AA1FBB1FA617B70710F0F5
:100E1000A61BB70B881F991F5A95A9F78095909527
:100E2000BC01CD01089597FB072E16F4009406D05F
:100E300077FD08D0E4DF07FC05D03EF4909581955E
:100E40009F4F0895709561957F4F0895DC01CB0108
:100E5000FC01E199FECF06C0FFBBEEBBE09A3196E4
:100E60000DB20D9241505040B8F70895E199FECF70
:100E70009FBB8EBBE09A99278DB30895A8E1B0E09F
:100E800042E050E0E5CFDC01CB0102C02D9105D05E
:100E900041505040D8F70895262FE199FECF1CBA53
:100EA0009FBB8EBB2DBB0FB6F894E29AE19A0FBEA2
:100EB00001960895F1DF272FF0CFF894FFCFBFCA36
:100EC000DBCAC1CAD9CAD8CAD7CAC7CAD5CAD4CA3E
:100ED000D3CACBCAD1CAD0CAAACACECACDCACCCA72
:100EE000C0CAA7CAA0CAC5CA7FCA84CA87CA8ACAD2
:100EF00090CA8FCA8ECA8DCA8CCA8BCA8ACA89CA3E
:100F000088CA87CA86CA85CA5BCA5DCA82CA5FCADE
:100F100080CA68CA7ECA7DCA7CCA7BCA5FCA55CAF3
:100F200078CA74CA76CA75CA74CA42CA55CA71CA1E
:0C0F300070CA6FCA6ECA4DCA6CCA52CAA1
:040F3C00E8FDE1AC3F
:00000001FF
